{
  "contractName": "DrainMoney",
  "abi": [
    {
      "anonymous": false,
      "inputs": [
        {
          "indexed": false,
          "internalType": "uint256",
          "name": "poolId",
          "type": "uint256"
        },
        {
          "indexed": true,
          "internalType": "address",
          "name": "owner",
          "type": "address"
        }
      ],
      "name": "NewPool",
      "type": "event"
    },
    {
      "payable": true,
      "stateMutability": "payable",
      "type": "fallback"
    },
    {
      "constant": true,
      "inputs": [
        {
          "internalType": "uint256",
          "name": "",
          "type": "uint256"
        }
      ],
      "name": "poolAccts",
      "outputs": [
        {
          "internalType": "address",
          "name": "",
          "type": "address"
        }
      ],
      "payable": false,
      "stateMutability": "view",
      "type": "function"
    },
    {
      "constant": true,
      "inputs": [
        {
          "internalType": "uint256",
          "name": "",
          "type": "uint256"
        }
      ],
      "name": "poolMembers",
      "outputs": [
        {
          "internalType": "address",
          "name": "userAddress",
          "type": "address"
        },
        {
          "internalType": "uint256",
          "name": "amtContributed",
          "type": "uint256"
        },
        {
          "internalType": "uint256",
          "name": "poolId",
          "type": "uint256"
        },
        {
          "internalType": "uint256",
          "name": "lastPayment",
          "type": "uint256"
        }
      ],
      "payable": false,
      "stateMutability": "view",
      "type": "function"
    },
    {
      "constant": true,
      "inputs": [
        {
          "internalType": "uint256",
          "name": "",
          "type": "uint256"
        }
      ],
      "name": "pools",
      "outputs": [
        {
          "internalType": "uint256",
          "name": "hashPass",
          "type": "uint256"
        },
        {
          "internalType": "uint256",
          "name": "maxMembers",
          "type": "uint256"
        },
        {
          "internalType": "uint256",
          "name": "fixedInvestment",
          "type": "uint256"
        },
        {
          "internalType": "uint256",
          "name": "totalBalance",
          "type": "uint256"
        },
        {
          "internalType": "address",
          "name": "owner",
          "type": "address"
        },
        {
          "internalType": "uint256",
          "name": "startTime",
          "type": "uint256"
        },
        {
          "internalType": "uint256",
          "name": "term",
          "type": "uint256"
        },
        {
          "internalType": "uint256",
          "name": "frequency",
          "type": "uint256"
        }
      ],
      "payable": false,
      "stateMutability": "view",
      "type": "function"
    },
    {
      "constant": false,
      "inputs": [
        {
          "internalType": "string",
          "name": "_passphrase",
          "type": "string"
        },
        {
          "internalType": "uint256",
          "name": "_maxMembers",
          "type": "uint256"
        },
        {
          "internalType": "uint256",
          "name": "_fixedInvestment",
          "type": "uint256"
        },
        {
          "internalType": "uint256",
          "name": "_term",
          "type": "uint256"
        },
        {
          "internalType": "uint256",
          "name": "_frequency",
          "type": "uint256"
        }
      ],
      "name": "create_pool",
      "outputs": [],
      "payable": false,
      "stateMutability": "nonpayable",
      "type": "function"
    },
    {
      "constant": false,
      "inputs": [
        {
          "internalType": "string",
          "name": "_passphrase",
          "type": "string"
        }
      ],
      "name": "join_pool",
      "outputs": [
        {
          "internalType": "bool",
          "name": "",
          "type": "bool"
        }
      ],
      "payable": false,
      "stateMutability": "nonpayable",
      "type": "function"
    },
    {
      "constant": true,
      "inputs": [
        {
          "internalType": "uint256",
          "name": "_id",
          "type": "uint256"
        }
      ],
      "name": "getPoolMembers",
      "outputs": [
        {
          "internalType": "address",
          "name": "",
          "type": "address"
        },
        {
          "internalType": "uint256",
          "name": "",
          "type": "uint256"
        },
        {
          "internalType": "uint256",
          "name": "",
          "type": "uint256"
        },
        {
          "internalType": "uint256",
          "name": "",
          "type": "uint256"
        }
      ],
      "payable": false,
      "stateMutability": "view",
      "type": "function"
    },
    {
      "constant": true,
      "inputs": [
        {
          "internalType": "string",
          "name": "_passphrase",
          "type": "string"
        }
      ],
      "name": "getPoolDetails",
      "outputs": [
        {
          "internalType": "address",
          "name": "",
          "type": "address"
        },
        {
          "internalType": "uint256",
          "name": "",
          "type": "uint256"
        },
        {
          "internalType": "uint256",
          "name": "",
          "type": "uint256"
        },
        {
          "internalType": "uint256[]",
          "name": "",
          "type": "uint256[]"
        },
        {
          "internalType": "uint256",
          "name": "",
          "type": "uint256"
        },
        {
          "internalType": "uint256",
          "name": "",
          "type": "uint256"
        },
        {
          "internalType": "uint256",
          "name": "",
          "type": "uint256"
        }
      ],
      "payable": false,
      "stateMutability": "view",
      "type": "function"
    },
    {
      "constant": false,
      "inputs": [
        {
          "internalType": "string",
          "name": "_passphrase",
          "type": "string"
        }
      ],
      "name": "invest",
      "outputs": [
        {
          "internalType": "bool",
          "name": "",
          "type": "bool"
        }
      ],
      "payable": false,
      "stateMutability": "nonpayable",
      "type": "function"
    },
    {
      "constant": false,
      "inputs": [
        {
          "internalType": "string",
          "name": "_passphrase",
          "type": "string"
        }
      ],
      "name": "cashout_defaulters",
      "outputs": [
        {
          "internalType": "bool",
          "name": "",
          "type": "bool"
        }
      ],
      "payable": false,
      "stateMutability": "nonpayable",
      "type": "function"
    },
    {
      "constant": false,
      "inputs": [
        {
          "internalType": "string",
          "name": "_passphrase",
          "type": "string"
        }
      ],
      "name": "cashout",
      "outputs": [
        {
          "internalType": "bool",
          "name": "",
          "type": "bool"
        }
      ],
      "payable": false,
      "stateMutability": "nonpayable",
      "type": "function"
    },
    {
      "constant": true,
      "inputs": [],
      "name": "getBalance",
      "outputs": [
        {
          "internalType": "uint256",
          "name": "",
          "type": "uint256"
        }
      ],
      "payable": false,
      "stateMutability": "view",
      "type": "function"
    }
  ],
  "bytecode": "0x608060405234801561001057600080fd5b506117e2806100206000396000f3fe60806040526004361061009c5760003560e01c8063ac4afa3811610064578063ac4afa381461053e578063ae853bb4146105ea578063b1219e7314610665578063c0ac4992146106f5578063c4fbeafc146107e5578063cbf0658b146109585761009c565b80630a8b7826146101e357806312065fe0146102c35780636816186f146102ee5780636855cbb8146103ce5780637eb8b1b31461045e575b600034116100a957600080fd5b60008090505b6003805490508110156101e0576000600382815481106100cb57fe5b906000526020600020906004020160000160009054906101000a900473ffffffffffffffffffffffffffffffffffffffff169050600060026003848154811061011057fe5b9060005260206000209060040201600201548154811061012c57fe5b90600052602060002090600902016002015490503373ffffffffffffffffffffffffffffffffffffffff168273ffffffffffffffffffffffffffffffffffffffff1614156101d1578034101561018157600080fd5b346003848154811061018f57fe5b90600052602060002090600402016001016000828254019250508190555042600384815481106101bb57fe5b9060005260206000209060040201600301819055505b505080806001019150506100af565b50005b3480156101ef57600080fd5b506102a96004803603602081101561020657600080fd5b810190808035906020019064010000000081111561022357600080fd5b82018360208201111561023557600080fd5b8035906020019184600183028401116401000000008311171561025757600080fd5b91908080601f016020809104026020016040519081016040528093929190818152602001838380828437600081840152601f19601f820116905080830192505050505050509192919290505050610a38565b604051808215151515815260200191505060405180910390f35b3480156102cf57600080fd5b506102d8610b03565b6040518082815260200191505060405180910390f35b3480156102fa57600080fd5b506103b46004803603602081101561031157600080fd5b810190808035906020019064010000000081111561032e57600080fd5b82018360208201111561034057600080fd5b8035906020019184600183028401116401000000008311171561036257600080fd5b91908080601f016020809104026020016040519081016040528093929190818152602001838380828437600081840152601f19601f820116905080830192505050505050509192919290505050610b0b565b604051808215151515815260200191505060405180910390f35b3480156103da57600080fd5b50610407600480360360208110156103f157600080fd5b8101908080359060200190929190505050610d12565b604051808573ffffffffffffffffffffffffffffffffffffffff1673ffffffffffffffffffffffffffffffffffffffff16815260200184815260200183815260200182815260200194505050505060405180910390f35b34801561046a57600080fd5b506105246004803603602081101561048157600080fd5b810190808035906020019064010000000081111561049e57600080fd5b8201836020820111156104b057600080fd5b803590602001918460018302840111640100000000831117156104d257600080fd5b91908080601f016020809104026020016040519081016040528093929190818152602001838380828437600081840152601f19601f820116905080830192505050505050509192919290505050610d6f565b604051808215151515815260200191505060405180910390f35b34801561054a57600080fd5b506105776004803603602081101561056157600080fd5b8101908080359060200190929190505050611069565b604051808981526020018881526020018781526020018681526020018573ffffffffffffffffffffffffffffffffffffffff1673ffffffffffffffffffffffffffffffffffffffff1681526020018481526020018381526020018281526020019850505050505050505060405180910390f35b3480156105f657600080fd5b506106236004803603602081101561060d57600080fd5b81019080803590602001909291905050506110de565b604051808273ffffffffffffffffffffffffffffffffffffffff1673ffffffffffffffffffffffffffffffffffffffff16815260200191505060405180910390f35b34801561067157600080fd5b5061069e6004803603602081101561068857600080fd5b810190808035906020019092919050505061111a565b604051808573ffffffffffffffffffffffffffffffffffffffff1673ffffffffffffffffffffffffffffffffffffffff16815260200184815260200183815260200182815260200194505050505060405180910390f35b34801561070157600080fd5b506107e3600480360360a081101561071857600080fd5b810190808035906020019064010000000081111561073557600080fd5b82018360208201111561074757600080fd5b8035906020019184600183028401116401000000008311171561076957600080fd5b91908080601f016020809104026020016040519081016040528093929190818152602001838380828437600081840152601f19601f820116905080830192505050505050509192919290803590602001909291908035906020019092919080359060200190929190803590602001909291905050506111e3565b005b3480156107f157600080fd5b506108ab6004803603602081101561080857600080fd5b810190808035906020019064010000000081111561082557600080fd5b82018360208201111561083757600080fd5b8035906020019184600183028401116401000000008311171561085957600080fd5b91908080601f016020809104026020016040519081016040528093929190818152602001838380828437600081840152601f19601f82011690508083019250505050505050919291929050505061143e565b604051808873ffffffffffffffffffffffffffffffffffffffff1673ffffffffffffffffffffffffffffffffffffffff16815260200187815260200186815260200180602001858152602001848152602001838152602001828103825286818151815260200191508051906020019060200280838360005b8381101561093e578082015181840152602081019050610923565b505050509050019850505050505050505060405180910390f35b34801561096457600080fd5b50610a1e6004803603602081101561097b57600080fd5b810190808035906020019064010000000081111561099857600080fd5b8201836020820111156109aa57600080fd5b803590602001918460018302840111640100000000831117156109cc57600080fd5b91908080601f016020809104026020016040519081016040528093929190818152602001838380828437600081840152601f19601f820116905080830192505050505050509192919290505050611690565b604051808215151515815260200191505060405180910390f35b600080826040516020018082805190602001908083835b60208310610a725780518252602082019150602081019050602083039250610a4f565b6001836020036101000a0380198251168184511680821785525050505050509050019150506040516020818303038152906040528051906020012060001c905060008090505b600280549050811015610af75781600080838152602001908152602001600020541415610aea57600192505050610afe565b8080600101915050610ab8565b5060009150505b919050565b600047905090565b600080826040516020018082805190602001908083835b60208310610b455780518252602082019150602081019050602083039250610b22565b6001836020036101000a0380198251168184511680821785525050505050509050019150506040516020818303038152906040528051906020012060001c905060008090505b600280549050811015610d065781600080838152602001908152602001600020541415610cf9576000339050600080905060008390506000429050610bce61169b565b60405180608001604052808673ffffffffffffffffffffffffffffffffffffffff16815260200185815260200184815260200183815250905060006003829080600181540180825580915050906001820390600052602060002090600402016000909192909190915060008201518160000160006101000a81548173ffffffffffffffffffffffffffffffffffffffff021916908373ffffffffffffffffffffffffffffffffffffffff1602179055506020820151816001015560408201518160020155606082015181600301555050905060028781548110610cad57fe5b9060005260206000209060090201600501819080600181540180825580915050906001820390600052602060002001600090919290919091505550600198505050505050505050610d0d565b8080600101915050610b8b565b5060009150505b919050565b60038181548110610d1f57fe5b90600052602060002090600402016000915090508060000160009054906101000a900473ffffffffffffffffffffffffffffffffffffffff16908060010154908060020154908060030154905084565b600080826040516020018082805190602001908083835b60208310610da95780518252602082019150602081019050602083039250610d86565b6001836020036101000a0380198251168184511680821785525050505050509050019150506040516020818303038152906040528051906020012060001c905060008090505b60028054905081101561105d57816000808381526020019081526020016000205414156110505760008090505b60028281548110610e2957fe5b9060005260206000209060090201600501805490508110156110445760028281548110610e5257fe5b906000526020600020906009020160080154600360028481548110610e7357fe5b90600052602060002090600902016005018381548110610e8f57fe5b906000526020600020015481548110610ea457fe5b9060005260206000209060040201600301544203118015610f22575060028281548110610ecd57fe5b90600052602060002090600902016007015460028381548110610eec57fe5b9060005260206000209060090201600801540260028381548110610f0c57fe5b9060005260206000209060090201600601540142115b15611037576000600360028481548110610f3857fe5b90600052602060002090600902016005018381548110610f5457fe5b906000526020600020015481548110610f6957fe5b906000526020600020906004020160000160009054906101000a900473ffffffffffffffffffffffffffffffffffffffff1690508073ffffffffffffffffffffffffffffffffffffffff166108fc600360028681548110610fc657fe5b90600052602060002090600902016005018581548110610fe257fe5b906000526020600020015481548110610ff757fe5b9060005260206000209060040201600101549081150290604051600060405180830381858888f19350505050158015611034573d6000803e3d6000fd5b50505b8080600101915050610e1c565b50600192505050611064565b8080600101915050610def565b5060009150505b919050565b6002818154811061107657fe5b90600052602060002090600902016000915090508060000154908060010154908060020154908060030154908060040160009054906101000a900473ffffffffffffffffffffffffffffffffffffffff16908060060154908060070154908060080154905088565b600181815481106110eb57fe5b906000526020600020016000915054906101000a900473ffffffffffffffffffffffffffffffffffffffff1681565b60008060008060006003868154811061112f57fe5b906000526020600020906004020160000160009054906101000a900473ffffffffffffffffffffffffffffffffffffffff16905060006003878154811061117257fe5b906000526020600020906004020160010154905060006003888154811061119557fe5b90600052602060002090600402016002015490506000600389815481106111b857fe5b9060005260206000209060040201600301549050838383839750975097509750505050509193509193565b6000856040516020018082805190602001908083835b6020831061121c57805182526020820191506020810190506020830392506111f9565b6001836020036101000a0380198251168184511680821785525050505050509050019150506040516020818303038152906040528051906020012060001c90506112646116d9565b604051806101200160405280838152602001878152602001868152602001600081526020013373ffffffffffffffffffffffffffffffffffffffff16815260200160006040519080825280602002602001820160405280156112d55781602001602082028038833980820191505090505b50815260200142815260200185815260200184815250905060006001600283908060018154018082558091505090600182039060005260206000209060090201600090919290919091506000820151816000015560208201518160010155604082015181600201556060820151816003015560808201518160040160006101000a81548173ffffffffffffffffffffffffffffffffffffffff021916908373ffffffffffffffffffffffffffffffffffffffff16021790555060a08201518160050190805190602001906113aa92919061173b565b5060c0820151816006015560e082015181600701556101008201518160080155505003905082600080838152602001908152602001600020819055503373ffffffffffffffffffffffffffffffffffffffff167fcfdb757a17c7073437a01260a6760f5026efd70c96fb9a3f54d03c6ed2c372c3826040518082815260200191505060405180910390a25050505050505050565b60008060006060600080600080886040516020018082805190602001908083835b60208310611482578051825260208201915060208101905060208303925061145f565b6001836020036101000a0380198251168184511680821785525050505050509050019150506040516020818303038152906040528051906020012060001c905060008090505b6002805490508110156116825781600080838152602001908152602001600020541415611675576000600282815481106114fe57fe5b906000526020600020906009020160040160009054906101000a900473ffffffffffffffffffffffffffffffffffffffff16905060006002838154811061154157fe5b906000526020600020906009020160020154905060006002848154811061156457fe5b906000526020600020906009020160030154905060606002858154811061158757fe5b90600052602060002090600902016005018054806020026020016040519081016040528092919081815260200182805480156115e257602002820191906000526020600020905b8154815260200190600101908083116115ce575b505050505090506000600286815481106115f857fe5b906000526020600020906009020160060154905060006002878154811061161b57fe5b906000526020600020906009020160070154905060006002888154811061163e57fe5b9060005260206000209060090201600801549050868686868686869f509f509f509f509f509f509f50505050505050505050611685565b80806001019150506114c8565b50505b919395979092949650565b600060019050919050565b6040518060800160405280600073ffffffffffffffffffffffffffffffffffffffff1681526020016000815260200160008152602001600081525090565b60405180610120016040528060008152602001600081526020016000815260200160008152602001600073ffffffffffffffffffffffffffffffffffffffff168152602001606081526020016000815260200160008152602001600081525090565b828054828255906000526020600020908101928215611777579160200282015b8281111561177657825182559160200191906001019061175b565b5b5090506117849190611788565b5090565b6117aa91905b808211156117a657600081600090555060010161178e565b5090565b9056fea265627a7a72315820ff12e749d288a64dc1d21103512ba666222f6593a093fcd7eec192618b61665264736f6c63430005100032",
  "source": "pragma solidity =0.5.16;\r\n\r\ncontract DrainMoney {\r\n    event NewPool(uint256 poolId, address indexed owner);\r\n\r\n    struct PoolMembers {\r\n        address userAddress;\r\n        uint256 amtContributed;\r\n        uint256 poolId;\r\n        uint256 lastPayment;\r\n    }\r\n\r\n    struct Pool {\r\n        uint256 hashPass;\r\n        uint256 maxMembers;\r\n        uint256 fixedInvestment;\r\n        uint256 totalBalance;\r\n        address owner;\r\n        uint256[] poolMembers;\r\n        uint256 startTime;\r\n        uint256 term;\r\n        uint256 frequency;\r\n    }\r\n\r\n    mapping(uint256 => uint256) passToPool;\r\n    address[] public poolAccts;\r\n\r\n    Pool[] public pools;\r\n    PoolMembers[] public poolMembers;\r\n\r\n    //accept money from users\r\n    function() external payable {\r\n        require(msg.value > 0);\r\n        //note down pay for this week\r\n        for (uint256 id = 0; id < poolMembers.length; id++) {\r\n            address _userAddress = poolMembers[id].userAddress;\r\n            uint256 _fixedInvestment = pools[poolMembers[id].poolId]\r\n                .fixedInvestment;\r\n            // check if sender is part of pool, value is greater than fixed investment, cooldown has not passed\r\n            if (_userAddress == msg.sender) {\r\n                require(msg.value >= _fixedInvestment);\r\n                poolMembers[id].amtContributed += msg.value;\r\n                poolMembers[id].lastPayment = now;\r\n            }\r\n        }\r\n    }\r\n\r\n    function create_pool(\r\n        string memory _passphrase,\r\n        uint256 _maxMembers,\r\n        uint256 _fixedInvestment,\r\n        uint256 _term,\r\n        uint256 _frequency\r\n    ) public {\r\n        uint256 _hashPass = uint256(keccak256(abi.encodePacked(_passphrase)));\r\n        Pool memory _pool = Pool(\r\n            _hashPass,\r\n            _maxMembers,\r\n            _fixedInvestment,\r\n            0,\r\n            msg.sender,\r\n            new uint256[](0),\r\n            now,\r\n            _term,\r\n            _frequency\r\n        );\r\n        uint256 id = pools.push(_pool) - 1;\r\n        passToPool[id] = _hashPass;\r\n        emit NewPool(id, msg.sender);\r\n    }\r\n\r\n    function join_pool(string memory _passphrase) public returns (bool) {\r\n        uint256 _hashPass = uint256(keccak256(abi.encodePacked(_passphrase)));\r\n        for (uint256 id = 0; id < pools.length; id++) {\r\n            if (passToPool[id] == _hashPass) {\r\n                address _userAddress = msg.sender;\r\n                uint256 _amtContributed = 0;\r\n                uint256 _poolId = id;\r\n                uint256 _lastPayment = now;\r\n                PoolMembers memory poolMember = PoolMembers(\r\n                    _userAddress,\r\n                    _amtContributed,\r\n                    _poolId,\r\n                    _lastPayment\r\n                );\r\n                uint256 pmId = poolMembers.push(poolMember);\r\n                pools[id].poolMembers.push(pmId);\r\n                return true;\r\n            }\r\n        }\r\n        return false;\r\n    }\r\n\r\n    function getPoolMembers(uint256 _id)\r\n        public\r\n        view\r\n        returns (\r\n            address,\r\n            uint256,\r\n            uint256,\r\n            uint256\r\n        )\r\n    {\r\n        address _userAddress = poolMembers[_id].userAddress;\r\n        uint256 _amtContributed = poolMembers[_id].amtContributed;\r\n        uint256 _poolId = poolMembers[_id].poolId;\r\n        uint256 _lastPayment = poolMembers[_id].lastPayment;\r\n        return (_userAddress, _amtContributed, _poolId, _lastPayment);\r\n    }\r\n\r\n    function getPoolDetails(string memory _passphrase)\r\n        public\r\n        view\r\n        returns (\r\n            address,\r\n            uint256,\r\n            uint256,\r\n            uint256[] memory,\r\n            uint256,\r\n            uint256,\r\n            uint256\r\n        )\r\n    {\r\n        uint256 _hashPass = uint256(keccak256(abi.encodePacked(_passphrase)));\r\n        for (uint256 id = 0; id < pools.length; id++) {\r\n            if (passToPool[id] == _hashPass) {\r\n                address _owner = pools[id].owner;\r\n                uint256 _fixedInvestment = pools[id].fixedInvestment;\r\n                uint256 _totalBalance = pools[id].totalBalance;\r\n                uint256[] memory _poolMembers = pools[id].poolMembers;\r\n                uint256 _startTime = pools[id].startTime;\r\n                uint256 _term = pools[id].term;\r\n                uint256 _frequency = pools[id].frequency;\r\n                return (\r\n                    _owner,\r\n                    _fixedInvestment,\r\n                    _totalBalance,\r\n                    _poolMembers,\r\n                    _startTime,\r\n                    _term,\r\n                    _frequency\r\n                );\r\n            }\r\n        }\r\n    }\r\n\r\n    //func. invest_pool(address) {check if sender is a member of the pool}\r\n    function invest(string memory _passphrase) public returns (bool) {\r\n        uint256 _hashPass = uint256(keccak256(abi.encodePacked(_passphrase)));\r\n        for (uint256 id = 0; id < pools.length; id++) {\r\n            if (passToPool[id] == _hashPass) {\r\n                // pools[id].poolMembers.push(pmId);\r\n                // code to invest money\r\n                return true;\r\n            }\r\n        }\r\n        return false;\r\n    }\r\n\r\n    //func. mark_pool_defaulters(address, passphrase){}\r\n    function cashout_defaulters(string memory _passphrase)\r\n        public\r\n        returns (bool)\r\n    {\r\n        uint256 _hashPass = uint256(keccak256(abi.encodePacked(_passphrase)));\r\n        for (uint256 id = 0; id < pools.length; id++) {\r\n            if (passToPool[id] == _hashPass) {\r\n                for (\r\n                    uint256 iter = 0;\r\n                    iter < pools[id].poolMembers.length;\r\n                    iter++\r\n                ) {\r\n                    // check if the last payment was done within the freq. time\r\n                    if (\r\n                        now -\r\n                            poolMembers[pools[id].poolMembers[iter]]\r\n                                .lastPayment >\r\n                        pools[id].frequency && // now - lastpayment older than frequency\r\n                        now >\r\n                        pools[id].startTime +\r\n                            (pools[id].frequency * pools[id].term) // now older than (start + (freq*term))\r\n                    ) {\r\n                        address payable _addr = address(\r\n                            uint160(\r\n                                poolMembers[pools[id].poolMembers[iter]]\r\n                                    .userAddress\r\n                            )\r\n                        );\r\n                        _addr.transfer(\r\n                            poolMembers[pools[id].poolMembers[iter]]\r\n                                .amtContributed\r\n                        );\r\n                    }\r\n                }\r\n\r\n                return true;\r\n            }\r\n        }\r\n        return false;\r\n    }\r\n\r\n    function getPoolIdForPass(string memory _passphrase)\r\n        internal\r\n        view\r\n        returns (uint256)\r\n    {\r\n        uint256 _hashPass = uint256(keccak256(abi.encodePacked(_passphrase)));\r\n        for (uint256 id = 0; id < pools.length; id++) {\r\n            if (passToPool[id] == _hashPass) {\r\n                return id;\r\n            }\r\n        }\r\n    }\r\n\r\n    //func. cashout, cashes everyone out if term has expired\r\n    function cashout(string memory _passphrase) public returns (bool) {\r\n        return true;\r\n    }\r\n\r\n    //func. auto cashout all if date is 30th\r\n\r\n    //func. cashout_all(force) only owner can cashout_all, fails if cool down not passed\r\n\r\n    //func. cashout(){cashes out only the single user}\r\n\r\n    function getBalance() public view returns (uint256) {\r\n        return address(this).balance;\r\n    }\r\n}\r\n",
  "sourcePath": "D:\\Code\\NodeJS\\Drain-Money\\contracts\\DrainMoney.sol",
  "compiler": {
    "name": "solc",
    "version": "0.5.16+commit.9c3226ce.Emscripten.clang"
  },
  "schemaVersion": "3.2.0",
  "updatedAt": "2020-07-02T06:37:07.212Z",
  "networkType": "ethereum",
  "devdoc": {
    "methods": {}
  },
  "userdoc": {
    "methods": {}
  }
}