{
  "contractName": "DrainMoney",
  "abi": [
    {
      "anonymous": false,
      "inputs": [
        {
          "indexed": false,
          "internalType": "uint256",
          "name": "poolId",
          "type": "uint256"
        },
        {
          "indexed": true,
          "internalType": "address",
          "name": "owner",
          "type": "address"
        }
      ],
      "name": "NewPool",
      "type": "event"
    },
    {
      "payable": true,
      "stateMutability": "payable",
      "type": "fallback"
    },
    {
      "constant": true,
      "inputs": [
        {
          "internalType": "uint256",
          "name": "",
          "type": "uint256"
        }
      ],
      "name": "poolAccts",
      "outputs": [
        {
          "internalType": "address",
          "name": "",
          "type": "address"
        }
      ],
      "payable": false,
      "stateMutability": "view",
      "type": "function"
    },
    {
      "constant": true,
      "inputs": [
        {
          "internalType": "uint256",
          "name": "",
          "type": "uint256"
        }
      ],
      "name": "poolMembers",
      "outputs": [
        {
          "internalType": "address",
          "name": "userAddress",
          "type": "address"
        },
        {
          "internalType": "uint256",
          "name": "amtContributed",
          "type": "uint256"
        },
        {
          "internalType": "uint256",
          "name": "poolId",
          "type": "uint256"
        },
        {
          "internalType": "uint256",
          "name": "lastPayment",
          "type": "uint256"
        },
        {
          "internalType": "bool",
          "name": "defaulter",
          "type": "bool"
        }
      ],
      "payable": false,
      "stateMutability": "view",
      "type": "function"
    },
    {
      "constant": true,
      "inputs": [
        {
          "internalType": "uint256",
          "name": "",
          "type": "uint256"
        }
      ],
      "name": "pools",
      "outputs": [
        {
          "internalType": "uint256",
          "name": "hashPass",
          "type": "uint256"
        },
        {
          "internalType": "uint256",
          "name": "maxMembers",
          "type": "uint256"
        },
        {
          "internalType": "uint256",
          "name": "fixedInvestment",
          "type": "uint256"
        },
        {
          "internalType": "uint256",
          "name": "totalBalance",
          "type": "uint256"
        },
        {
          "internalType": "address",
          "name": "owner",
          "type": "address"
        },
        {
          "internalType": "uint256",
          "name": "startTime",
          "type": "uint256"
        },
        {
          "internalType": "uint256",
          "name": "term",
          "type": "uint256"
        },
        {
          "internalType": "uint256",
          "name": "frequency",
          "type": "uint256"
        },
        {
          "internalType": "uint256",
          "name": "totalCTokens",
          "type": "uint256"
        },
        {
          "internalType": "uint256",
          "name": "currTerm",
          "type": "uint256"
        }
      ],
      "payable": false,
      "stateMutability": "view",
      "type": "function"
    },
    {
      "constant": false,
      "inputs": [
        {
          "internalType": "string",
          "name": "_passphrase",
          "type": "string"
        },
        {
          "internalType": "uint256",
          "name": "_maxMembers",
          "type": "uint256"
        },
        {
          "internalType": "uint256",
          "name": "_fixedInvestment",
          "type": "uint256"
        },
        {
          "internalType": "uint256",
          "name": "_term",
          "type": "uint256"
        },
        {
          "internalType": "uint256",
          "name": "_frequency",
          "type": "uint256"
        }
      ],
      "name": "createPool",
      "outputs": [],
      "payable": false,
      "stateMutability": "nonpayable",
      "type": "function"
    },
    {
      "constant": false,
      "inputs": [
        {
          "internalType": "string",
          "name": "_passphrase",
          "type": "string"
        }
      ],
      "name": "joinPool",
      "outputs": [
        {
          "internalType": "bool",
          "name": "",
          "type": "bool"
        }
      ],
      "payable": false,
      "stateMutability": "nonpayable",
      "type": "function"
    },
    {
      "constant": true,
      "inputs": [
        {
          "internalType": "uint256",
          "name": "_id",
          "type": "uint256"
        }
      ],
      "name": "getPoolMembers",
      "outputs": [
        {
          "internalType": "address",
          "name": "",
          "type": "address"
        },
        {
          "internalType": "uint256",
          "name": "",
          "type": "uint256"
        },
        {
          "internalType": "uint256",
          "name": "",
          "type": "uint256"
        },
        {
          "internalType": "uint256",
          "name": "",
          "type": "uint256"
        }
      ],
      "payable": false,
      "stateMutability": "view",
      "type": "function"
    },
    {
      "constant": true,
      "inputs": [
        {
          "internalType": "string",
          "name": "_passphrase",
          "type": "string"
        }
      ],
      "name": "getPoolDetails",
      "outputs": [
        {
          "internalType": "address",
          "name": "",
          "type": "address"
        },
        {
          "internalType": "uint256",
          "name": "",
          "type": "uint256"
        },
        {
          "internalType": "uint256",
          "name": "",
          "type": "uint256"
        },
        {
          "internalType": "uint256[]",
          "name": "",
          "type": "uint256[]"
        },
        {
          "internalType": "uint256",
          "name": "",
          "type": "uint256"
        },
        {
          "internalType": "uint256",
          "name": "",
          "type": "uint256"
        },
        {
          "internalType": "uint256",
          "name": "",
          "type": "uint256"
        }
      ],
      "payable": false,
      "stateMutability": "view",
      "type": "function"
    },
    {
      "constant": false,
      "inputs": [
        {
          "internalType": "string",
          "name": "_passphrase",
          "type": "string"
        }
      ],
      "name": "invest",
      "outputs": [
        {
          "internalType": "bool",
          "name": "",
          "type": "bool"
        }
      ],
      "payable": false,
      "stateMutability": "nonpayable",
      "type": "function"
    },
    {
      "constant": false,
      "inputs": [],
      "name": "maintainAllPools",
      "outputs": [
        {
          "internalType": "bool",
          "name": "",
          "type": "bool"
        }
      ],
      "payable": false,
      "stateMutability": "nonpayable",
      "type": "function"
    },
    {
      "constant": false,
      "inputs": [
        {
          "internalType": "uint256",
          "name": "poolId",
          "type": "uint256"
        }
      ],
      "name": "setPoolTerms",
      "outputs": [
        {
          "internalType": "bool",
          "name": "",
          "type": "bool"
        }
      ],
      "payable": false,
      "stateMutability": "nonpayable",
      "type": "function"
    },
    {
      "constant": true,
      "inputs": [
        {
          "internalType": "string",
          "name": "_passphrase",
          "type": "string"
        }
      ],
      "name": "getPoolIdForPass",
      "outputs": [
        {
          "internalType": "uint256",
          "name": "",
          "type": "uint256"
        }
      ],
      "payable": false,
      "stateMutability": "view",
      "type": "function"
    },
    {
      "constant": false,
      "inputs": [
        {
          "internalType": "string",
          "name": "_passphrase",
          "type": "string"
        }
      ],
      "name": "cashout",
      "outputs": [
        {
          "internalType": "bool",
          "name": "",
          "type": "bool"
        }
      ],
      "payable": false,
      "stateMutability": "nonpayable",
      "type": "function"
    },
    {
      "constant": true,
      "inputs": [],
      "name": "getBalance",
      "outputs": [
        {
          "internalType": "uint256",
          "name": "",
          "type": "uint256"
        }
      ],
      "payable": false,
      "stateMutability": "view",
      "type": "function"
    }
  ],
  "bytecode": "0x608060405234801561001057600080fd5b50611f1b806100206000396000f3fe6080604052600436106100c25760003560e01c806399b1112e1161007f578063b1219e7311610059578063b1219e731461083c578063c4fbeafc146108cc578063cbf0658b14610a3f578063f69eccf614610b1f576100c2565b806399b1112e14610627578063ac4afa3814610707578063ae853bb4146107c1576100c2565b80630211ca06146102865780630a8b7826146102b557806312065fe0146103955780631c710fdb146103c0578063589b3926146104b05780636855cbb81461058c575b600034116100cf57600080fd5b600080905060008090505b600380549050811015610278576000600382815481106100f657fe5b906000526020600020906005020160000160009054906101000a900473ffffffffffffffffffffffffffffffffffffffff169050600060026003848154811061013b57fe5b9060005260206000209060050201600201548154811061015757fe5b90600052602060002090600b02016002015490503373ffffffffffffffffffffffffffffffffffffffff168273ffffffffffffffffffffffffffffffffffffffff16141561026957803410156101ac57600080fd5b426002600385815481106101bc57fe5b906000526020600020906005020160020154815481106101d857fe5b90600052602060002090600b020160080154600385815481106101f757fe5b90600052602060002090600502016003015401101561021557600080fd5b346003848154811061022357fe5b906000526020600020906005020160010160008282540192505081905550426003848154811061024f57fe5b906000526020600020906005020160030181905550600193505b505080806001019150506100da565b508061028357600080fd5b50005b34801561029257600080fd5b5061029b610b72565b604051808215151515815260200191505060405180910390f35b3480156102c157600080fd5b5061037b600480360360208110156102d857600080fd5b81019080803590602001906401000000008111156102f557600080fd5b82018360208201111561030757600080fd5b8035906020019184600183028401116401000000008311171561032957600080fd5b91908080601f016020809104026020016040519081016040528093929190818152602001838380828437600081840152601f19601f820116905080830192505050505050509192919290505050610ba8565b604051808215151515815260200191505060405180910390f35b3480156103a157600080fd5b506103aa610c73565b6040518082815260200191505060405180910390f35b3480156103cc57600080fd5b506104ae600480360360a08110156103e357600080fd5b810190808035906020019064010000000081111561040057600080fd5b82018360208201111561041257600080fd5b8035906020019184600183028401116401000000008311171561043457600080fd5b91908080601f016020809104026020016040519081016040528093929190818152602001838380828437600081840152601f19601f82011690508083019250505050505050919291929080359060200190929190803590602001909291908035906020019092919080359060200190929190505050610c7b565b005b3480156104bc57600080fd5b50610576600480360360208110156104d357600080fd5b81019080803590602001906401000000008111156104f057600080fd5b82018360208201111561050257600080fd5b8035906020019184600183028401116401000000008311171561052457600080fd5b91908080601f016020809104026020016040519081016040528093929190818152602001838380828437600081840152601f19601f820116905080830192505050505050509192919290505050610efa565b6040518082815260200191505060405180910390f35b34801561059857600080fd5b506105c5600480360360208110156105af57600080fd5b8101908080359060200190929190505050610fd5565b604051808673ffffffffffffffffffffffffffffffffffffffff1673ffffffffffffffffffffffffffffffffffffffff168152602001858152602001848152602001838152602001821515151581526020019550505050505060405180910390f35b34801561063357600080fd5b506106ed6004803603602081101561064a57600080fd5b810190808035906020019064010000000081111561066757600080fd5b82018360208201111561067957600080fd5b8035906020019184600183028401116401000000008311171561069b57600080fd5b91908080601f016020809104026020016040519081016040528093929190818152602001838380828437600081840152601f19601f820116905080830192505050505050509192919290505050611045565b604051808215151515815260200191505060405180910390f35b34801561071357600080fd5b506107406004803603602081101561072a57600080fd5b810190808035906020019092919050505061127a565b604051808b81526020018a81526020018981526020018881526020018773ffffffffffffffffffffffffffffffffffffffff1673ffffffffffffffffffffffffffffffffffffffff1681526020018681526020018581526020018481526020018381526020018281526020019a505050505050505050505060405180910390f35b3480156107cd57600080fd5b506107fa600480360360208110156107e457600080fd5b81019080803590602001909291905050506112fb565b604051808273ffffffffffffffffffffffffffffffffffffffff1673ffffffffffffffffffffffffffffffffffffffff16815260200191505060405180910390f35b34801561084857600080fd5b506108756004803603602081101561085f57600080fd5b8101908080359060200190929190505050611337565b604051808573ffffffffffffffffffffffffffffffffffffffff1673ffffffffffffffffffffffffffffffffffffffff16815260200184815260200183815260200182815260200194505050505060405180910390f35b3480156108d857600080fd5b50610992600480360360208110156108ef57600080fd5b810190808035906020019064010000000081111561090c57600080fd5b82018360208201111561091e57600080fd5b8035906020019184600183028401116401000000008311171561094057600080fd5b91908080601f016020809104026020016040519081016040528093929190818152602001838380828437600081840152601f19601f820116905080830192505050505050509192919290505050611400565b604051808873ffffffffffffffffffffffffffffffffffffffff1673ffffffffffffffffffffffffffffffffffffffff16815260200187815260200186815260200180602001858152602001848152602001838152602001828103825286818151815260200191508051906020019060200280838360005b83811015610a25578082015181840152602081019050610a0a565b505050509050019850505050505050505060405180910390f35b348015610a4b57600080fd5b50610b0560048036036020811015610a6257600080fd5b8101908080359060200190640100000000811115610a7f57600080fd5b820183602082011115610a9157600080fd5b80359060200191846001830284011164010000000083111715610ab357600080fd5b91908080601f016020809104026020016040519081016040528093929190818152602001838380828437600081840152601f19601f820116905080830192505050505050509192919290505050611652565b604051808215151515815260200191505060405180910390f35b348015610b2b57600080fd5b50610b5860048036036020811015610b4257600080fd5b8101908080359060200190929190505050611999565b604051808215151515815260200191505060405180910390f35b6000805b600280549050811015610ba457610b8c81611999565b50610b9681611aef565b508080600101915050610b76565b5090565b600080826040516020018082805190602001908083835b60208310610be25780518252602082019150602081019050602083039250610bbf565b6001836020036101000a0380198251168184511680821785525050505050509050019150506040516020818303038152906040528051906020012060001c905060008090505b600280549050811015610c675781600080838152602001908152602001600020541415610c5a57600192505050610c6e565b8080600101915050610c28565b5060009150505b919050565b600047905090565b6000856040516020018082805190602001908083835b60208310610cb45780518252602082019150602081019050602083039250610c91565b6001836020036101000a0380198251168184511680821785525050505050509050019150506040516020818303038152906040528051906020012060001c9050610cfc611dbd565b604051806101600160405280838152602001878152602001868152602001600081526020013373ffffffffffffffffffffffffffffffffffffffff1681526020016000604051908082528060200260200182016040528015610d6d5781602001602082028038833980820191505090505b5081526020014281526020018581526020018481526020016000815260200160018152509050600060016002839080600181540180825580915050906001820390600052602060002090600b0201600090919290919091506000820151816000015560208201518160010155604082015181600201556060820151816003015560808201518160040160006101000a81548173ffffffffffffffffffffffffffffffffffffffff021916908373ffffffffffffffffffffffffffffffffffffffff16021790555060a0820151816005019080519060200190610e50929190611e2d565b5060c0820151816006015560e082015181600701556101008201518160080155610120820151816009015561014082015181600a0155505003905082600080838152602001908152602001600020819055503373ffffffffffffffffffffffffffffffffffffffff167fcfdb757a17c7073437a01260a6760f5026efd70c96fb9a3f54d03c6ed2c372c3826040518082815260200191505060405180910390a25050505050505050565b600080826040516020018082805190602001908083835b60208310610f345780518252602082019150602081019050602083039250610f11565b6001836020036101000a0380198251168184511680821785525050505050509050019150506040516020818303038152906040528051906020012060001c9050600080905060008090505b600280549050811015610fc25782600080838152602001908152602001600020541415610fb55760019150809350505050610fd0565b8080600101915050610f7f565b5080610fcd57600080fd5b50505b919050565b60038181548110610fe257fe5b90600052602060002090600502016000915090508060000160009054906101000a900473ffffffffffffffffffffffffffffffffffffffff16908060010154908060020154908060030154908060040160009054906101000a900460ff16905085565b600080826040516020018082805190602001908083835b6020831061107f578051825260208201915060208101905060208303925061105c565b6001836020036101000a0380198251168184511680821785525050505050509050019150506040516020818303038152906040528051906020012060001c905060008090505b60028054905081101561126e5781600080838152602001908152602001600020541415611261576000339050600080905060008390506000429050600080905061110d611e7a565b6040518060a001604052808773ffffffffffffffffffffffffffffffffffffffff168152602001868152602001858152602001848152602001831515815250905060006003829080600181540180825580915050906001820390600052602060002090600502016000909192909190915060008201518160000160006101000a81548173ffffffffffffffffffffffffffffffffffffffff021916908373ffffffffffffffffffffffffffffffffffffffff16021790555060208201518160010155604082015181600201556060820151816003015560808201518160040160006101000a81548160ff021916908315150217905550505090506002888154811061121457fe5b90600052602060002090600b020160050181908060018154018082558091505090600182039060005260206000200160009091929091909150555060019950505050505050505050611275565b80806001019150506110c5565b5060009150505b919050565b6002818154811061128757fe5b90600052602060002090600b02016000915090508060000154908060010154908060020154908060030154908060040160009054906101000a900473ffffffffffffffffffffffffffffffffffffffff169080600601549080600701549080600801549080600901549080600a015490508a565b6001818154811061130857fe5b906000526020600020016000915054906101000a900473ffffffffffffffffffffffffffffffffffffffff1681565b60008060008060006003868154811061134c57fe5b906000526020600020906005020160000160009054906101000a900473ffffffffffffffffffffffffffffffffffffffff16905060006003878154811061138f57fe5b90600052602060002090600502016001015490506000600388815481106113b257fe5b90600052602060002090600502016002015490506000600389815481106113d557fe5b9060005260206000209060050201600301549050838383839750975097509750505050509193509193565b60008060006060600080600080886040516020018082805190602001908083835b602083106114445780518252602082019150602081019050602083039250611421565b6001836020036101000a0380198251168184511680821785525050505050509050019150506040516020818303038152906040528051906020012060001c905060008090505b6002805490508110156116445781600080838152602001908152602001600020541415611637576000600282815481106114c057fe5b90600052602060002090600b020160040160009054906101000a900473ffffffffffffffffffffffffffffffffffffffff16905060006002838154811061150357fe5b90600052602060002090600b020160020154905060006002848154811061152657fe5b90600052602060002090600b020160030154905060606002858154811061154957fe5b90600052602060002090600b02016005018054806020026020016040519081016040528092919081815260200182805480156115a457602002820191906000526020600020905b815481526020019060010190808311611590575b505050505090506000600286815481106115ba57fe5b90600052602060002090600b02016006015490506000600287815481106115dd57fe5b90600052602060002090600b020160070154905060006002888154811061160057fe5b90600052602060002090600b0201600801549050868686868686869f509f509f509f509f509f509f50505050505050505050611647565b808060010191505061148a565b50505b919395979092949650565b600061165c610b72565b50600061166883610efa565b9050611672611dbd565b6002828154811061167f57fe5b90600052602060002090600b020160405180610160016040529081600082015481526020016001820154815260200160028201548152602001600382015481526020016004820160009054906101000a900473ffffffffffffffffffffffffffffffffffffffff1673ffffffffffffffffffffffffffffffffffffffff1673ffffffffffffffffffffffffffffffffffffffff1681526020016005820180548060200260200160405190810160405280929190818152602001828054801561176657602002820191906000526020600020905b815481526020019060010190808311611752575b5050505050815260200160068201548152602001600782015481526020016008820154815260200160098201548152602001600a820154815250509050600080905060008090505b8260a001515181101561189b576117c3611e7a565b600382815481106117d057fe5b90600052602060002090600502016040518060a00160405290816000820160009054906101000a900473ffffffffffffffffffffffffffffffffffffffff1673ffffffffffffffffffffffffffffffffffffffff1673ffffffffffffffffffffffffffffffffffffffff1681526020016001820154815260200160028201548152602001600382015481526020016004820160009054906101000a900460ff161515151581525050905080608001511561188d5782806001019350505b5080806001019150506117ae565b5060008090506118aa81611db3565b5060008090505b8360a001515181101561198b576118c6611e7a565b600382815481106118d357fe5b90600052602060002090600502016040518060a00160405290816000820160009054906101000a900473ffffffffffffffffffffffffffffffffffffffff1673ffffffffffffffffffffffffffffffffffffffff1673ffffffffffffffffffffffffffffffffffffffff1681526020016001820154815260200160028201548152602001600382015481526020016004820160009054906101000a900460ff16151515158152505090505080806001019150506118b1565b506001945050505050919050565b60006119a3611dbd565b600283815481106119b057fe5b90600052602060002090600b020160405180610160016040529081600082015481526020016001820154815260200160028201548152602001600382015481526020016004820160009054906101000a900473ffffffffffffffffffffffffffffffffffffffff1673ffffffffffffffffffffffffffffffffffffffff1673ffffffffffffffffffffffffffffffffffffffff16815260200160058201805480602002602001604051908101604052809291908181526020018280548015611a9757602002820191906000526020600020905b815481526020019060010190808311611a83575b5050505050815260200160068201548152602001600782015481526020016008820154815260200160098201548152602001600a8201548152505090508060c001514203816101400181815250506001915050919050565b6000611af9611dbd565b60028381548110611b0657fe5b90600052602060002090600b020160405180610160016040529081600082015481526020016001820154815260200160028201548152602001600382015481526020016004820160009054906101000a900473ffffffffffffffffffffffffffffffffffffffff1673ffffffffffffffffffffffffffffffffffffffff1673ffffffffffffffffffffffffffffffffffffffff16815260200160058201805480602002602001604051908101604052809291908181526020018280548015611bed57602002820191906000526020600020905b815481526020019060010190808311611bd9575b5050505050815260200160068201548152602001600782015481526020016008820154815260200160098201548152602001600a82015481525050905060008160e00151826101000151028260c0015101905080421015611da85760008090505b8260a0015151811015611da657611c63611e7a565b60038281548110611c7057fe5b90600052602060002090600502016040518060a00160405290816000820160009054906101000a900473ffffffffffffffffffffffffffffffffffffffff1673ffffffffffffffffffffffffffffffffffffffff1673ffffffffffffffffffffffffffffffffffffffff1681526020016001820154815260200160028201548152602001600382015481526020016004820160009054906101000a900460ff16151515158152505090508360c001518461010001518561014001510201816060015110611d9857806000015173ffffffffffffffffffffffffffffffffffffffff166108fc82602001519081150290604051600060405180830381858888f19350505050158015611d85573d6000803e3d6000fd5b5060018160800190151590811515815250505b508080600101915050611c4e565b505b600192505050919050565b6000809050919050565b60405180610160016040528060008152602001600081526020016000815260200160008152602001600073ffffffffffffffffffffffffffffffffffffffff1681526020016060815260200160008152602001600081526020016000815260200160008152602001600081525090565b828054828255906000526020600020908101928215611e69579160200282015b82811115611e68578251825591602001919060010190611e4d565b5b509050611e769190611ec1565b5090565b6040518060a00160405280600073ffffffffffffffffffffffffffffffffffffffff1681526020016000815260200160008152602001600081526020016000151581525090565b611ee391905b80821115611edf576000816000905550600101611ec7565b5090565b9056fea265627a7a72315820bb1f95cdf8e3a262e6a527640d24d80aaa15d7c6f4f7095635485afe6e4d6cca64736f6c63430005100032",
  "source": "pragma solidity >=0.5.16;\r\n\r\n\r\ncontract DrainMoney {\r\n    event NewPool(uint256 poolId, address indexed owner);\r\n\r\n    struct PoolMember {\r\n        address userAddress;\r\n        uint256 amtContributed;\r\n        uint256 poolId;\r\n        uint256 lastPayment;\r\n        bool defaulter;\r\n    }\r\n\r\n    struct Pool {\r\n        uint256 hashPass;\r\n        uint256 maxMembers;\r\n        uint256 fixedInvestment;\r\n        uint256 totalBalance;\r\n        address owner;\r\n        uint256[] poolMembers;\r\n        uint256 startTime;\r\n        uint256 term;\r\n        uint256 frequency;\r\n        uint256 totalCTokens;\r\n        uint256 currTerm;\r\n    }\r\n\r\n    mapping(uint256 => uint256) passToPool;\r\n    address[] public poolAccts;\r\n\r\n    Pool[] public pools;\r\n    PoolMember[] public poolMembers;\r\n\r\n    //accept money from users\r\n    function() external payable {\r\n        require(msg.value > 0);\r\n        bool tranSuccess = false;\r\n        //note down pay for this week\r\n        for (uint256 id = 0; id < poolMembers.length; id++) {\r\n            address _userAddress = poolMembers[id].userAddress;\r\n            uint256 _fixedInvestment = pools[poolMembers[id].poolId]\r\n                .fixedInvestment;\r\n            // check if sender is part of pool, value is greater than fixed investment, cooldown has not passed\r\n            if (_userAddress == msg.sender) {\r\n                require(msg.value >= _fixedInvestment);\r\n                require(\r\n                    (poolMembers[id].lastPayment +\r\n                        pools[poolMembers[id].poolId].frequency) >= now\r\n                );\r\n                poolMembers[id].amtContributed += msg.value;\r\n                poolMembers[id].lastPayment = now;\r\n                tranSuccess = true;\r\n            }\r\n        }\r\n        require(tranSuccess);\r\n    }\r\n\r\n    function createPool(\r\n        string memory _passphrase,\r\n        uint256 _maxMembers,\r\n        uint256 _fixedInvestment,\r\n        uint256 _term,\r\n        uint256 _frequency\r\n    ) public {\r\n        uint256 _hashPass = uint256(keccak256(abi.encodePacked(_passphrase)));\r\n        Pool memory _pool = Pool(\r\n            _hashPass,\r\n            _maxMembers,\r\n            _fixedInvestment,\r\n            0,\r\n            msg.sender,\r\n            new uint256[](0),\r\n            now,\r\n            _term,\r\n            _frequency,\r\n            0,\r\n            1\r\n        );\r\n        uint256 id = pools.push(_pool) - 1;\r\n        passToPool[id] = _hashPass;\r\n        emit NewPool(id, msg.sender);\r\n    }\r\n\r\n    function joinPool(string memory _passphrase) public returns (bool) {\r\n        uint256 _hashPass = uint256(keccak256(abi.encodePacked(_passphrase)));\r\n        for (uint256 id = 0; id < pools.length; id++) {\r\n            if (passToPool[id] == _hashPass) {\r\n                address _userAddress = msg.sender;\r\n                uint256 _amtContributed = 0;\r\n                uint256 _poolId = id;\r\n                uint256 _lastPayment = now;\r\n                bool _defaulter = false;\r\n                PoolMember memory poolMember = PoolMember(\r\n                    _userAddress,\r\n                    _amtContributed,\r\n                    _poolId,\r\n                    _lastPayment,\r\n                    _defaulter\r\n                );\r\n                uint256 pmId = poolMembers.push(poolMember);\r\n                pools[id].poolMembers.push(pmId);\r\n                return true;\r\n            }\r\n        }\r\n        return false;\r\n    }\r\n\r\n    function getPoolMembers(uint256 _id)\r\n        public\r\n        view\r\n        returns (\r\n            address,\r\n            uint256,\r\n            uint256,\r\n            uint256\r\n        )\r\n    {\r\n        address _userAddress = poolMembers[_id].userAddress;\r\n        uint256 _amtContributed = poolMembers[_id].amtContributed;\r\n        uint256 _poolId = poolMembers[_id].poolId;\r\n        uint256 _lastPayment = poolMembers[_id].lastPayment;\r\n        return (_userAddress, _amtContributed, _poolId, _lastPayment);\r\n    }\r\n\r\n    function getPoolDetails(string memory _passphrase)\r\n        public\r\n        view\r\n        returns (\r\n            address,\r\n            uint256,\r\n            uint256,\r\n            uint256[] memory,\r\n            uint256,\r\n            uint256,\r\n            uint256\r\n        )\r\n    {\r\n        uint256 _hashPass = uint256(keccak256(abi.encodePacked(_passphrase)));\r\n        for (uint256 id = 0; id < pools.length; id++) {\r\n            if (passToPool[id] == _hashPass) {\r\n                address _owner = pools[id].owner;\r\n                uint256 _fixedInvestment = pools[id].fixedInvestment;\r\n                uint256 _totalBalance = pools[id].totalBalance;\r\n                uint256[] memory _poolMembers = pools[id].poolMembers;\r\n                uint256 _startTime = pools[id].startTime;\r\n                uint256 _term = pools[id].term;\r\n                uint256 _frequency = pools[id].frequency;\r\n                return (\r\n                    _owner,\r\n                    _fixedInvestment,\r\n                    _totalBalance,\r\n                    _poolMembers,\r\n                    _startTime,\r\n                    _term,\r\n                    _frequency\r\n                );\r\n            }\r\n        }\r\n    }\r\n\r\n    //func. invest_pool(address) {check if sender is a member of the pool}\r\n    function invest(string memory _passphrase) public returns (bool) {\r\n        uint256 _hashPass = uint256(keccak256(abi.encodePacked(_passphrase)));\r\n        for (uint256 id = 0; id < pools.length; id++) {\r\n            if (passToPool[id] == _hashPass) {\r\n                // pools[id].poolMembers.push(pmId);\r\n                // code to invest money\r\n                return true;\r\n            }\r\n        }\r\n        return false;\r\n    }\r\n\r\n    function maintainAllPools() public returns (bool) {\r\n        for (uint256 poolId; poolId < pools.length; poolId++) {\r\n            // Pool memory pool = pools[poolId];\r\n            setPoolTerms(poolId);\r\n            refundAndMarkDefaulters(poolId);\r\n        }\r\n    }\r\n\r\n    function setPoolTerms(uint256 poolId) public returns (bool) {\r\n        Pool memory pool = pools[poolId];\r\n        pool.currTerm = (now - pool.startTime);\r\n        return true;\r\n    }\r\n\r\n    function refundAndMarkDefaulters(uint256 poolId) internal returns (bool) {\r\n        Pool memory pool = pools[poolId];\r\n        uint256 endTime = pool.startTime + (pool.frequency * pool.term);\r\n\r\n        if (now < endTime) {\r\n            for (uint256 memId = 0; memId < pool.poolMembers.length; memId++) {\r\n                PoolMember memory member = poolMembers[memId];\r\n                // check if member defaulted on the payments\r\n                if (\r\n                    member.lastPayment >=\r\n                    (pool.currTerm * pool.frequency) + pool.startTime\r\n                ) {\r\n                    // refund user\r\n                    address(uint160(member.userAddress)).transfer(\r\n                        member.amtContributed\r\n                    );\r\n                    // mark person as defaulter\r\n                    member.defaulter = true;\r\n                }\r\n            }\r\n        }\r\n        return true;\r\n    }\r\n\r\n    function getPoolIdForPass(string memory _passphrase)\r\n        public\r\n        view\r\n        returns (uint256)\r\n    {\r\n        uint256 _hashPass = uint256(keccak256(abi.encodePacked(_passphrase)));\r\n        bool success = false;\r\n        for (uint256 id = 0; id < pools.length; id++) {\r\n            if (passToPool[id] == _hashPass) {\r\n                success = true;\r\n                return id;\r\n            }\r\n        }\r\n        require(success);\r\n    }\r\n\r\n    function redeemCTokens(uint256 _amount) internal returns (uint256) {\r\n        // return eth generated from cTokens\r\n        return 0;\r\n    }\r\n\r\n    //func. cashout, cashes everyone out if term has expired\r\n    function cashout(string memory _passphrase) public returns (bool) {\r\n        maintainAllPools();\r\n        uint256 poolId = getPoolIdForPass(_passphrase);\r\n        Pool memory pool = pools[poolId];\r\n\r\n        // count number of defaulters\r\n        uint256 noOfDefaulters = 0;\r\n        for (uint256 memId = 0; memId < pool.poolMembers.length; memId++) {\r\n            PoolMember memory member = poolMembers[memId];\r\n            if (member.defaulter) {\r\n                noOfDefaulters++;\r\n            }\r\n        }\r\n\r\n        // redeem cTokens from contract\r\n        uint256 noOfCTokens = 0;\r\n        redeemCTokens(noOfCTokens);\r\n\r\n        // cash out all the defaulters\r\n        for (uint256 memId = 0; memId < pool.poolMembers.length; memId++) {\r\n            PoolMember memory member = poolMembers[memId];\r\n            // transfer bal. to pool members\r\n        }\r\n\r\n        return true;\r\n    }\r\n\r\n    function getBalance() public view returns (uint256) {\r\n        return address(this).balance;\r\n    }\r\n}\r\n",
  "sourcePath": "D:\\Code\\NodeJS\\Drain-Money\\contracts\\DrainMoney.sol",
  "compiler": {
    "name": "solc",
    "version": "0.5.16+commit.9c3226ce.Emscripten.clang"
  },
  "schemaVersion": "3.2.0",
  "updatedAt": "2020-07-15T05:48:47.863Z",
  "devdoc": {
    "methods": {}
  },
  "userdoc": {
    "methods": {}
  }
}