{
  "contractName": "MyDeFiProject",
  "abi": [
    {
      "inputs": [
        {
          "internalType": "address",
          "name": "_dai",
          "type": "address"
        },
        {
          "internalType": "address",
          "name": "_cDai",
          "type": "address"
        },
        {
          "internalType": "address",
          "name": "_comptroller",
          "type": "address"
        }
      ],
      "payable": false,
      "stateMutability": "nonpayable",
      "type": "constructor"
    },
    {
      "constant": false,
      "inputs": [],
      "name": "invest",
      "outputs": [],
      "payable": false,
      "stateMutability": "nonpayable",
      "type": "function"
    },
    {
      "constant": false,
      "inputs": [],
      "name": "cashOut",
      "outputs": [],
      "payable": false,
      "stateMutability": "nonpayable",
      "type": "function"
    }
  ],
  "bytecode": "0x608060405234801561001057600080fd5b506040516104fd3803806104fd8339818101604052606081101561003357600080fd5b81019080805190602001909291908051906020019092919080519060200190929190505050826000806101000a81548173ffffffffffffffffffffffffffffffffffffffff021916908373ffffffffffffffffffffffffffffffffffffffff16021790555081600160006101000a81548173ffffffffffffffffffffffffffffffffffffffff021916908373ffffffffffffffffffffffffffffffffffffffff16021790555080600260006101000a81548173ffffffffffffffffffffffffffffffffffffffff021916908373ffffffffffffffffffffffffffffffffffffffff1602179055505050506103d18061012c6000396000f3fe608060405234801561001057600080fd5b50600436106100365760003560e01c8063793cd71e1461003b578063e8b5e51f14610045575b600080fd5b61004361004f565b005b61004d6101e1565b005b6000600160009054906101000a900473ffffffffffffffffffffffffffffffffffffffff1673ffffffffffffffffffffffffffffffffffffffff166370a08231306040518263ffffffff1660e01b8152600401808273ffffffffffffffffffffffffffffffffffffffff1673ffffffffffffffffffffffffffffffffffffffff16815260200191505060206040518083038186803b1580156100f057600080fd5b505afa158015610104573d6000803e3d6000fd5b505050506040513d602081101561011a57600080fd5b81019080805190602001909291905050509050600160009054906101000a900473ffffffffffffffffffffffffffffffffffffffff1673ffffffffffffffffffffffffffffffffffffffff1663db006a75826040518263ffffffff1660e01b815260040180828152602001915050602060405180830381600087803b1580156101a257600080fd5b505af11580156101b6573d6000803e3d6000fd5b505050506040513d60208110156101cc57600080fd5b81019080805190602001909291905050505050565b6000809054906101000a900473ffffffffffffffffffffffffffffffffffffffff1673ffffffffffffffffffffffffffffffffffffffff1663095ea7b3600160009054906101000a900473ffffffffffffffffffffffffffffffffffffffff1660646040518363ffffffff1660e01b8152600401808373ffffffffffffffffffffffffffffffffffffffff1673ffffffffffffffffffffffffffffffffffffffff16815260200182815260200192505050602060405180830381600087803b1580156102ac57600080fd5b505af11580156102c0573d6000803e3d6000fd5b505050506040513d60208110156102d657600080fd5b810190808051906020019092919050505050600160009054906101000a900473ffffffffffffffffffffffffffffffffffffffff1673ffffffffffffffffffffffffffffffffffffffff1663a0712d6860646040518263ffffffff1660e01b815260040180828152602001915050602060405180830381600087803b15801561035e57600080fd5b505af1158015610372573d6000803e3d6000fd5b505050506040513d602081101561038857600080fd5b81019080805190602001909291905050505056fea265627a7a72315820a40c14f0ca32cce5bfa8bfaecf9b58ba116c3d3f260a99cafca6478d26daa56a64736f6c63430005100032",
  "source": "pragma solidity =0.5.16;\r\n\r\nimport \"./IERC20.sol\";\r\nimport \"./ComptrollerInterface.sol\";\r\nimport \"./CTokenInterface.sol\";\r\n\r\ncontract MyDeFiProject {\r\n    IERC20 dai;\r\n    CTokenInterface cDai;\r\n    ComptrollerInterface comptroller;\r\n\r\n    constructor(\r\n        address _dai,\r\n        address _cDai,\r\n        address _comptroller\r\n    ) public {\r\n        dai = IERC20(_dai);\r\n        cDai = CTokenInterface(_cDai);\r\n        comptroller = ComptrollerInterface(_comptroller);\r\n    }\r\n\r\n    function invest() external {\r\n        dai.approve(address(cDai), 100);\r\n        cDai.mint(100);\r\n    }\r\n\r\n    function cashOut() external {\r\n        uint256 balance = cDai.balanceOf(address(this));\r\n        cDai.redeem(balance);\r\n    }\r\n}\r\n",
  "sourcePath": "D:\\Code\\NodeJS\\Drain-Money\\contracts\\MyDefiProject.sol",
  "compiler": {
    "name": "solc",
    "version": "0.5.16+commit.9c3226ce.Emscripten.clang"
  },
  "schemaVersion": "3.2.0",
  "updatedAt": "2020-07-03T07:11:32.347Z",
  "devdoc": {
    "methods": {}
  },
  "userdoc": {
    "methods": {}
  }
}